{
  "contractName": "Voting",
  "abi": [
    {
      "inputs": [
        {
          "internalType": "string[]",
          "name": "_candidateNames",
          "type": "string[]"
        }
      ],
      "stateMutability": "nonpayable",
      "type": "constructor"
    },
    {
      "inputs": [
        {
          "internalType": "uint256",
          "name": "",
          "type": "uint256"
        }
      ],
      "name": "candidateNames",
      "outputs": [
        {
          "internalType": "string",
          "name": "",
          "type": "string"
        }
      ],
      "stateMutability": "view",
      "type": "function"
    },
    {
      "inputs": [
        {
          "internalType": "address",
          "name": "",
          "type": "address"
        }
      ],
      "name": "hasVoted",
      "outputs": [
        {
          "internalType": "bool",
          "name": "",
          "type": "bool"
        }
      ],
      "stateMutability": "view",
      "type": "function"
    },
    {
      "inputs": [
        {
          "internalType": "string",
          "name": "_candidateName",
          "type": "string"
        }
      ],
      "name": "vote",
      "outputs": [],
      "stateMutability": "nonpayable",
      "type": "function"
    },
    {
      "inputs": [
        {
          "internalType": "string",
          "name": "_candidateName",
          "type": "string"
        }
      ],
      "name": "getVotes",
      "outputs": [
        {
          "internalType": "uint256",
          "name": "",
          "type": "uint256"
        }
      ],
      "stateMutability": "view",
      "type": "function"
    },
    {
      "inputs": [],
      "name": "getAllCandidates",
      "outputs": [
        {
          "internalType": "string[]",
          "name": "",
          "type": "string[]"
        }
      ],
      "stateMutability": "view",
      "type": "function"
    }
  ],
  "bytecode": "0x608060405234801562000010575f80fd5b50604051620015333803806200153383398181016040528101906200003691906200038b565b5f5b815181101562000106575f828281518110620000595762000058620003da565b5b6020026020010151905060405180604001604052808281526020015f8152506001826040516200008a919062000451565b90815260200160405180910390205f820151815f019081620000ad919062000696565b5060208201518160010155905050600281908060018154018082558091505060019003905f5260205f20015f909190919091509081620000ee919062000696565b50508080620000fd90620007a7565b91505062000038565b5050620007f3565b5f604051905090565b5f80fd5b5f80fd5b5f80fd5b5f601f19601f8301169050919050565b7f4e487b71000000000000000000000000000000000000000000000000000000005f52604160045260245ffd5b6200016b8262000123565b810181811067ffffffffffffffff821117156200018d576200018c62000133565b5b80604052505050565b5f620001a16200010e565b9050620001af828262000160565b919050565b5f67ffffffffffffffff821115620001d157620001d062000133565b5b602082029050602081019050919050565b5f80fd5b5f80fd5b5f67ffffffffffffffff82111562000207576200020662000133565b5b620002128262000123565b9050602081019050919050565b5f5b838110156200023e57808201518184015260208101905062000221565b5f8484015250505050565b5f6200025f6200025984620001ea565b62000196565b9050828152602081018484840111156200027e576200027d620001e6565b5b6200028b8482856200021f565b509392505050565b5f82601f830112620002aa57620002a96200011f565b5b8151620002bc84826020860162000249565b91505092915050565b5f620002db620002d584620001b4565b62000196565b90508083825260208201905060208402830185811115620003015762000300620001e2565b5b835b818110156200034f57805167ffffffffffffffff8111156200032a57620003296200011f565b5b80860162000339898262000293565b8552602085019450505060208101905062000303565b5050509392505050565b5f82601f83011262000370576200036f6200011f565b5b815162000382848260208601620002c5565b91505092915050565b5f60208284031215620003a357620003a262000117565b5b5f82015167ffffffffffffffff811115620003c357620003c26200011b565b5b620003d18482850162000359565b91505092915050565b7f4e487b71000000000000000000000000000000000000000000000000000000005f52603260045260245ffd5b5f81519050919050565b5f81905092915050565b5f620004278262000407565b62000433818562000411565b9350620004458185602086016200021f565b80840191505092915050565b5f6200045e82846200041b565b915081905092915050565b7f4e487b71000000000000000000000000000000000000000000000000000000005f52602260045260245ffd5b5f6002820490506001821680620004ae57607f821691505b602082108103620004c457620004c362000469565b5b50919050565b5f819050815f5260205f209050919050565b5f6020601f8301049050919050565b5f82821b905092915050565b5f60088302620005287fffffffffffffffffffffffffffffffffffffffffffffffffffffffffffffffff82620004eb565b620005348683620004eb565b95508019841693508086168417925050509392505050565b5f819050919050565b5f819050919050565b5f6200057e6200057862000572846200054c565b62000555565b6200054c565b9050919050565b5f819050919050565b62000599836200055e565b620005b1620005a88262000585565b848454620004f7565b825550505050565b5f90565b620005c7620005b9565b620005d48184846200058e565b505050565b5b81811015620005fb57620005ef5f82620005bd565b600181019050620005da565b5050565b601f8211156200064a576200061481620004ca565b6200061f84620004dc565b810160208510156200062f578190505b620006476200063e85620004dc565b830182620005d9565b50505b505050565b5f82821c905092915050565b5f6200066c5f19846008026200064f565b1980831691505092915050565b5f6200068683836200065b565b9150826002028217905092915050565b620006a18262000407565b67ffffffffffffffff811115620006bd57620006bc62000133565b5b620006c9825462000496565b620006d6828285620005ff565b5f60209050601f8311600181146200070c575f8415620006f7578287015190505b62000703858262000679565b86555062000772565b601f1984166200071c86620004ca565b5f5b8281101562000745578489015182556001820191506020850194506020810190506200071e565b8683101562000765578489015162000761601f8916826200065b565b8355505b6001600288020188555050505b505050505050565b7f4e487b71000000000000000000000000000000000000000000000000000000005f52601160045260245ffd5b5f620007b3826200054c565b91507fffffffffffffffffffffffffffffffffffffffffffffffffffffffffffffffff8203620007e857620007e76200077a565b5b600182019050919050565b610d3280620008015f395ff3fe608060405234801561000f575f80fd5b5060043610610055575f3560e01c806309eef43e146100595780632e6997fe14610089578063805265e5146100a75780638287e42f146100d7578063fc36e15b14610107575b5f80fd5b610073600480360381019061006e919061056d565b610123565b60405161008091906105b2565b60405180910390f35b61009161013f565b60405161009e9190610710565b60405180910390f35b6100c160048036038101906100bc919061085c565b610213565b6040516100ce91906108bb565b60405180910390f35b6100f160048036038101906100ec91906108fe565b610285565b6040516100fe9190610971565b60405180910390f35b610121600480360381019061011c919061085c565b61032b565b005b5f602052805f5260405f205f915054906101000a900460ff1681565b60606002805480602002602001604051908101604052809291908181526020015f905b8282101561020a578382905f5260205f2001805461017f906109be565b80601f01602080910402602001604051908101604052809291908181526020018280546101ab906109be565b80156101f65780601f106101cd576101008083540402835291602001916101f6565b820191905f5260205f20905b8154815290600101906020018083116101d957829003601f168201915b505050505081526020019060010190610162565b50505050905090565b5f61021d8261048a565b61025c576040517f08c379a000000000000000000000000000000000000000000000000000000000815260040161025390610a38565b60405180910390fd5b60018260405161026c9190610a90565b9081526020016040518091039020600101549050919050565b60028181548110610294575f80fd5b905f5260205f20015f9150905080546102ac906109be565b80601f01602080910402602001604051908101604052809291908181526020018280546102d8906109be565b80156103235780601f106102fa57610100808354040283529160200191610323565b820191905f5260205f20905b81548152906001019060200180831161030657829003601f168201915b505050505081565b5f803373ffffffffffffffffffffffffffffffffffffffff1673ffffffffffffffffffffffffffffffffffffffff1681526020019081526020015f205f9054906101000a900460ff16156103b4576040517f08c379a00000000000000000000000000000000000000000000000000000000081526004016103ab90610af0565b60405180910390fd5b6103bd8161048a565b6103fc576040517f08c379a00000000000000000000000000000000000000000000000000000000081526004016103f390610b58565b60405180910390fd5b6001808260405161040d9190610a90565b90815260200160405180910390206001015f82825461042c9190610ba3565b9250508190555060015f803373ffffffffffffffffffffffffffffffffffffffff1673ffffffffffffffffffffffffffffffffffffffff1681526020019081526020015f205f6101000a81548160ff02191690831515021790555050565b5f805f90505b6002805490508110156104f8578280519060200120600282815481106104b9576104b8610bd6565b5b905f5260205f20016040516104ce9190610c9f565b6040518091039020036104e55760019150506104fd565b80806104f090610cb5565b915050610490565b505f90505b919050565b5f604051905090565b5f80fd5b5f80fd5b5f73ffffffffffffffffffffffffffffffffffffffff82169050919050565b5f61053c82610513565b9050919050565b61054c81610532565b8114610556575f80fd5b50565b5f8135905061056781610543565b92915050565b5f602082840312156105825761058161050b565b5b5f61058f84828501610559565b91505092915050565b5f8115159050919050565b6105ac81610598565b82525050565b5f6020820190506105c55f8301846105a3565b92915050565b5f81519050919050565b5f82825260208201905092915050565b5f819050602082019050919050565b5f81519050919050565b5f82825260208201905092915050565b5f5b8381101561062b578082015181840152602081019050610610565b5f8484015250505050565b5f601f19601f8301169050919050565b5f610650826105f4565b61065a81856105fe565b935061066a81856020860161060e565b61067381610636565b840191505092915050565b5f6106898383610646565b905092915050565b5f602082019050919050565b5f6106a7826105cb565b6106b181856105d5565b9350836020820285016106c3856105e5565b805f5b858110156106fe57848403895281516106df858261067e565b94506106ea83610691565b925060208a019950506001810190506106c6565b50829750879550505050505092915050565b5f6020820190508181035f830152610728818461069d565b905092915050565b5f80fd5b5f80fd5b7f4e487b71000000000000000000000000000000000000000000000000000000005f52604160045260245ffd5b61076e82610636565b810181811067ffffffffffffffff8211171561078d5761078c610738565b5b80604052505050565b5f61079f610502565b90506107ab8282610765565b919050565b5f67ffffffffffffffff8211156107ca576107c9610738565b5b6107d382610636565b9050602081019050919050565b828183375f83830152505050565b5f6108006107fb846107b0565b610796565b90508281526020810184848401111561081c5761081b610734565b5b6108278482856107e0565b509392505050565b5f82601f83011261084357610842610730565b5b81356108538482602086016107ee565b91505092915050565b5f602082840312156108715761087061050b565b5b5f82013567ffffffffffffffff81111561088e5761088d61050f565b5b61089a8482850161082f565b91505092915050565b5f819050919050565b6108b5816108a3565b82525050565b5f6020820190506108ce5f8301846108ac565b92915050565b6108dd816108a3565b81146108e7575f80fd5b50565b5f813590506108f8816108d4565b92915050565b5f602082840312156109135761091261050b565b5b5f610920848285016108ea565b91505092915050565b5f82825260208201905092915050565b5f610943826105f4565b61094d8185610929565b935061095d81856020860161060e565b61096681610636565b840191505092915050565b5f6020820190508181035f8301526109898184610939565b905092915050565b7f4e487b71000000000000000000000000000000000000000000000000000000005f52602260045260245ffd5b5f60028204905060018216806109d557607f821691505b6020821081036109e8576109e7610991565b5b50919050565b7f43616e646964617465206e6f7420666f756e64000000000000000000000000005f82015250565b5f610a22601383610929565b9150610a2d826109ee565b602082019050919050565b5f6020820190508181035f830152610a4f81610a16565b9050919050565b5f81905092915050565b5f610a6a826105f4565b610a748185610a56565b9350610a8481856020860161060e565b80840191505092915050565b5f610a9b8284610a60565b915081905092915050565b7f596f75206861766520616c726561647920766f746564000000000000000000005f82015250565b5f610ada601683610929565b9150610ae582610aa6565b602082019050919050565b5f6020820190508181035f830152610b0781610ace565b9050919050565b7f496e76616c69642063616e6469646174650000000000000000000000000000005f82015250565b5f610b42601183610929565b9150610b4d82610b0e565b602082019050919050565b5f6020820190508181035f830152610b6f81610b36565b9050919050565b7f4e487b71000000000000000000000000000000000000000000000000000000005f52601160045260245ffd5b5f610bad826108a3565b9150610bb8836108a3565b9250828201905080821115610bd057610bcf610b76565b5b92915050565b7f4e487b71000000000000000000000000000000000000000000000000000000005f52603260045260245ffd5b5f81905092915050565b5f819050815f5260205f209050919050565b5f8154610c2b816109be565b610c358186610c03565b9450600182165f8114610c4f5760018114610c6457610c96565b60ff1983168652811515820286019350610c96565b610c6d85610c0d565b5f5b83811015610c8e57815481890152600182019150602081019050610c6f565b838801955050505b50505092915050565b5f610caa8284610c1f565b915081905092915050565b5f610cbf826108a3565b91507fffffffffffffffffffffffffffffffffffffffffffffffffffffffffffffffff8203610cf157610cf0610b76565b5b60018201905091905056fea264697066735822122016bcf20d6eb6387ace37d18f1538e39e11601657f9b0fde0335d8d552d32bc2564736f6c63430008150033",
  "immutableReferences": {},
  "source": "// SPDX-License-Identifier: MIT\r\npragma solidity ^0.8.0;\r\n\r\ncontract Voting {\r\n    struct Candidate {\r\n        string name;\r\n        uint256 voteCount;\r\n    }\r\n\r\n    mapping(address => bool) public hasVoted;\r\n    mapping(string => Candidate) private candidates;\r\n    string[] public candidateNames;\r\n\r\n    constructor(string[] memory _candidateNames) {\r\n        for (uint i = 0; i < _candidateNames.length; i++) {\r\n            string memory name = _candidateNames[i];\r\n            candidates[name] = Candidate(name, 0);\r\n            candidateNames.push(name);\r\n        }\r\n    }\r\n\r\n    function vote(string memory _candidateName) public {\r\n        require(!hasVoted[msg.sender], \"You have already voted\");\r\n        require(candidateExists(_candidateName), \"Invalid candidate\");\r\n\r\n        candidates[_candidateName].voteCount += 1;\r\n        hasVoted[msg.sender] = true;\r\n    }\r\n\r\n    function getVotes(string memory _candidateName) public view returns (uint256) {\r\n        require(candidateExists(_candidateName), \"Candidate not found\");\r\n        return candidates[_candidateName].voteCount;\r\n    }\r\n\r\n    function getAllCandidates() public view returns (string[] memory) {\r\n        return candidateNames;\r\n    }\r\n\r\n    function candidateExists(string memory _name) internal view returns (bool) {\r\n        for (uint i = 0; i < candidateNames.length; i++) {\r\n            if (keccak256(bytes(candidateNames[i])) == keccak256(bytes(_name))) {\r\n                return true;\r\n            }\r\n        }\r\n        return false;\r\n    }\r\n}\r\n",
  "sourcePath": "C:\\Users\\ASUS 2\\Desktop\\decent\\Decentvote\\Ethereum\\Blockchain\\contracts\\Voting.sol",
  "compiler": {
    "name": "solc",
    "version": "0.8.21+commit.d9974bed.Emscripten.clang"
  },
  "schemaVersion": "3.4.16",
  "updatedAt": "2025-05-09T20:07:27.736Z",
  "devdoc": {
    "kind": "dev",
    "methods": {},
    "version": 1
  },
  "userdoc": {
    "kind": "user",
    "methods": {},
    "version": 1
  }
}